{
  "_format": "hh-sol-artifact-1",
  "contractName": "DAO",
  "sourceName": "contracts/DAO.sol",
  "abi": [
    {
      "anonymous": false,
      "inputs": [
        {
          "indexed": true,
          "internalType": "address",
          "name": "initiator",
          "type": "address"
        },
        {
          "indexed": false,
          "internalType": "bytes32",
          "name": "role",
          "type": "bytes32"
        },
        {
          "indexed": false,
          "internalType": "string",
          "name": "message",
          "type": "string"
        },
        {
          "indexed": true,
          "internalType": "address",
          "name": "beneficiary",
          "type": "address"
        },
        {
          "indexed": false,
          "internalType": "uint256",
          "name": "amount",
          "type": "uint256"
        }
      ],
      "name": "Action",
      "type": "event"
    },
    {
      "anonymous": false,
      "inputs": [
        {
          "indexed": true,
          "internalType": "bytes32",
          "name": "role",
          "type": "bytes32"
        },
        {
          "indexed": true,
          "internalType": "bytes32",
          "name": "previousAdminRole",
          "type": "bytes32"
        },
        {
          "indexed": true,
          "internalType": "bytes32",
          "name": "newAdminRole",
          "type": "bytes32"
        }
      ],
      "name": "RoleAdminChanged",
      "type": "event"
    },
    {
      "anonymous": false,
      "inputs": [
        {
          "indexed": true,
          "internalType": "bytes32",
          "name": "role",
          "type": "bytes32"
        },
        {
          "indexed": true,
          "internalType": "address",
          "name": "account",
          "type": "address"
        },
        {
          "indexed": true,
          "internalType": "address",
          "name": "sender",
          "type": "address"
        }
      ],
      "name": "RoleGranted",
      "type": "event"
    },
    {
      "anonymous": false,
      "inputs": [
        {
          "indexed": true,
          "internalType": "bytes32",
          "name": "role",
          "type": "bytes32"
        },
        {
          "indexed": true,
          "internalType": "address",
          "name": "account",
          "type": "address"
        },
        {
          "indexed": true,
          "internalType": "address",
          "name": "sender",
          "type": "address"
        }
      ],
      "name": "RoleRevoked",
      "type": "event"
    },
    {
      "inputs": [],
      "name": "DEFAULT_ADMIN_ROLE",
      "outputs": [
        {
          "internalType": "bytes32",
          "name": "",
          "type": "bytes32"
        }
      ],
      "stateMutability": "view",
      "type": "function"
    },
    {
      "inputs": [
        {
          "internalType": "uint256",
          "name": "proposalId",
          "type": "uint256"
        },
        {
          "internalType": "bool",
          "name": "chosen",
          "type": "bool"
        }
      ],
      "name": "Vote",
      "outputs": [
        {
          "components": [
            {
              "internalType": "address",
              "name": "voter",
              "type": "address"
            },
            {
              "internalType": "uint256",
              "name": "timestamp",
              "type": "uint256"
            },
            {
              "internalType": "bool",
              "name": "chosen",
              "type": "bool"
            }
          ],
          "internalType": "struct DAO.VotedStruct",
          "name": "",
          "type": "tuple"
        }
      ],
      "stateMutability": "nonpayable",
      "type": "function"
    },
    {
      "inputs": [],
      "name": "contribute",
      "outputs": [],
      "stateMutability": "payable",
      "type": "function"
    },
    {
      "inputs": [
        {
          "internalType": "string",
          "name": "title",
          "type": "string"
        },
        {
          "internalType": "string",
          "name": "description",
          "type": "string"
        },
        {
          "internalType": "address",
          "name": "beneficiary",
          "type": "address"
        },
        {
          "internalType": "uint256",
          "name": "amount",
          "type": "uint256"
        }
      ],
      "name": "createProposal",
      "outputs": [],
      "stateMutability": "nonpayable",
      "type": "function"
    },
    {
      "inputs": [],
      "name": "daoBalance",
      "outputs": [
        {
          "internalType": "uint256",
          "name": "",
          "type": "uint256"
        }
      ],
      "stateMutability": "view",
      "type": "function"
    },
    {
      "inputs": [],
      "name": "getBalance",
      "outputs": [
        {
          "internalType": "uint256",
          "name": "",
          "type": "uint256"
        }
      ],
      "stateMutability": "view",
      "type": "function"
    },
    {
      "inputs": [],
      "name": "getContributorBalance",
      "outputs": [
        {
          "internalType": "uint256",
          "name": "",
          "type": "uint256"
        }
      ],
      "stateMutability": "view",
      "type": "function"
    },
    {
      "inputs": [
        {
          "internalType": "uint256",
          "name": "proposalId",
          "type": "uint256"
        }
      ],
      "name": "getProposal",
      "outputs": [
        {
          "components": [
            {
              "internalType": "uint256",
              "name": "id",
              "type": "uint256"
            },
            {
              "internalType": "uint256",
              "name": "amount",
              "type": "uint256"
            },
            {
              "internalType": "uint256",
              "name": "duration",
              "type": "uint256"
            },
            {
              "internalType": "uint256",
              "name": "upvotes",
              "type": "uint256"
            },
            {
              "internalType": "uint256",
              "name": "downvotes",
              "type": "uint256"
            },
            {
              "internalType": "string",
              "name": "title",
              "type": "string"
            },
            {
              "internalType": "string",
              "name": "description",
              "type": "string"
            },
            {
              "internalType": "bool",
              "name": "passed",
              "type": "bool"
            },
            {
              "internalType": "bool",
              "name": "paid",
              "type": "bool"
            },
            {
              "internalType": "address payable",
              "name": "beneficiary",
              "type": "address"
            },
            {
              "internalType": "address",
              "name": "proposer",
              "type": "address"
            },
            {
              "internalType": "address",
              "name": "executor",
              "type": "address"
            }
          ],
          "internalType": "struct DAO.ProposalStruct",
          "name": "",
          "type": "tuple"
        }
      ],
      "stateMutability": "view",
      "type": "function"
    },
    {
      "inputs": [],
      "name": "getProposals",
      "outputs": [
        {
          "components": [
            {
              "internalType": "uint256",
              "name": "id",
              "type": "uint256"
            },
            {
              "internalType": "uint256",
              "name": "amount",
              "type": "uint256"
            },
            {
              "internalType": "uint256",
              "name": "duration",
              "type": "uint256"
            },
            {
              "internalType": "uint256",
              "name": "upvotes",
              "type": "uint256"
            },
            {
              "internalType": "uint256",
              "name": "downvotes",
              "type": "uint256"
            },
            {
              "internalType": "string",
              "name": "title",
              "type": "string"
            },
            {
              "internalType": "string",
              "name": "description",
              "type": "string"
            },
            {
              "internalType": "bool",
              "name": "passed",
              "type": "bool"
            },
            {
              "internalType": "bool",
              "name": "paid",
              "type": "bool"
            },
            {
              "internalType": "address payable",
              "name": "beneficiary",
              "type": "address"
            },
            {
              "internalType": "address",
              "name": "proposer",
              "type": "address"
            },
            {
              "internalType": "address",
              "name": "executor",
              "type": "address"
            }
          ],
          "internalType": "struct DAO.ProposalStruct[]",
          "name": "props",
          "type": "tuple[]"
        }
      ],
      "stateMutability": "view",
      "type": "function"
    },
    {
      "inputs": [
        {
          "internalType": "bytes32",
          "name": "role",
          "type": "bytes32"
        }
      ],
      "name": "getRoleAdmin",
      "outputs": [
        {
          "internalType": "bytes32",
          "name": "",
          "type": "bytes32"
        }
      ],
      "stateMutability": "view",
      "type": "function"
    },
    {
      "inputs": [],
      "name": "getStakeholderBalance",
      "outputs": [
        {
          "internalType": "uint256",
          "name": "",
          "type": "uint256"
        }
      ],
      "stateMutability": "view",
      "type": "function"
    },
    {
      "inputs": [],
      "name": "getStakeholderVotes",
      "outputs": [
        {
          "internalType": "uint256[]",
          "name": "",
          "type": "uint256[]"
        }
      ],
      "stateMutability": "view",
      "type": "function"
    },
    {
      "inputs": [
        {
          "internalType": "uint256",
          "name": "proposalId",
          "type": "uint256"
        }
      ],
      "name": "getVotesOf",
      "outputs": [
        {
          "components": [
            {
              "internalType": "address",
              "name": "voter",
              "type": "address"
            },
            {
              "internalType": "uint256",
              "name": "timestamp",
              "type": "uint256"
            },
            {
              "internalType": "bool",
              "name": "chosen",
              "type": "bool"
            }
          ],
          "internalType": "struct DAO.VotedStruct[]",
          "name": "",
          "type": "tuple[]"
        }
      ],
      "stateMutability": "view",
      "type": "function"
    },
    {
      "inputs": [
        {
          "internalType": "bytes32",
          "name": "role",
          "type": "bytes32"
        },
        {
          "internalType": "address",
          "name": "account",
          "type": "address"
        }
      ],
      "name": "grantRole",
      "outputs": [],
      "stateMutability": "nonpayable",
      "type": "function"
    },
    {
      "inputs": [
        {
          "internalType": "bytes32",
          "name": "role",
          "type": "bytes32"
        },
        {
          "internalType": "address",
          "name": "account",
          "type": "address"
        }
      ],
      "name": "hasRole",
      "outputs": [
        {
          "internalType": "bool",
          "name": "",
          "type": "bool"
        }
      ],
      "stateMutability": "view",
      "type": "function"
    },
    {
      "inputs": [],
      "name": "isContributor",
      "outputs": [
        {
          "internalType": "bool",
          "name": "",
          "type": "bool"
        }
      ],
      "stateMutability": "view",
      "type": "function"
    },
    {
      "inputs": [],
      "name": "isStakeholder",
      "outputs": [
        {
          "internalType": "bool",
          "name": "",
          "type": "bool"
        }
      ],
      "stateMutability": "view",
      "type": "function"
    },
    {
      "inputs": [
        {
          "internalType": "uint256",
          "name": "proposalId",
          "type": "uint256"
        }
      ],
      "name": "payBeneficiary",
      "outputs": [
        {
          "internalType": "uint256",
          "name": "",
          "type": "uint256"
        }
      ],
      "stateMutability": "nonpayable",
      "type": "function"
    },
    {
      "inputs": [
        {
          "internalType": "bytes32",
          "name": "role",
          "type": "bytes32"
        },
        {
          "internalType": "address",
          "name": "account",
          "type": "address"
        }
      ],
      "name": "renounceRole",
      "outputs": [],
      "stateMutability": "nonpayable",
      "type": "function"
    },
    {
      "inputs": [
        {
          "internalType": "bytes32",
          "name": "role",
          "type": "bytes32"
        },
        {
          "internalType": "address",
          "name": "account",
          "type": "address"
        }
      ],
      "name": "revokeRole",
      "outputs": [],
      "stateMutability": "nonpayable",
      "type": "function"
    },
    {
      "inputs": [
        {
          "internalType": "bytes4",
          "name": "interfaceId",
          "type": "bytes4"
        }
      ],
      "name": "supportsInterface",
      "outputs": [
        {
          "internalType": "bool",
          "name": "",
          "type": "bool"
        }
      ],
      "stateMutability": "view",
      "type": "function"
    }
  ],
  "bytecode": "0x6101006040527fa0bb1af1c90aa52ed052b92714ff0087008cc720049bf1af77cca2600b31e80c6080908152507ff4bb84e1768dd286358a736d195a0b228621173f655a73b89bf8b191ed0ba07d60a090815250670de0b6b3a764000060c09081525061025863ffffffff1660e09063ffffffff1660e01b81525034801561008657600080fd5b50600160008190555060805160a05160c05160e05160e01c613d99610118600039600061118001526000611b540152600081816105c20152818161085301528181610f1901528181610fe5015281816112090152818161126e015281816114fb0152818161162101528181611ada01528181611bc20152611d850152600081816109cc0152611c430152613d996000f3fe60806040526004361061012a5760003560e01c80637cdc2eb7116100ab578063bd9728161161006f578063bd9728161461041a578063c02146ac14610445578063c7f758a814610470578063d547741f146104ad578063d6cc8016146104d6578063d7bb99ba146105015761012a565b80637cdc2eb7146103215780638bfa1f401461034a57806391d1485414610387578063a217fddf146103c4578063a22f1db7146103ef5761012a565b806336568abe116100f257806336568abe1461023a5780633cdb48c21461026357806362564c481461028e57806369a136dc146102b95780636a80d84d146102f65761012a565b806301ffc9a71461012f578063119c37c81461016c57806312065fe0146101a9578063248a9ca3146101d45780632f2ff15d14610211575b600080fd5b34801561013b57600080fd5b5061015660048036038101906101519190612863565b61050b565b60405161016391906131bf565b60405180910390f35b34801561017857600080fd5b50610193600480360381019061018e919061292f565b610585565b6040516101a09190613484565b60405180910390f35b3480156101b557600080fd5b506101be6108a1565b6040516101cb9190613484565b60405180910390f35b3480156101e057600080fd5b506101fb60048036038101906101f691906127f6565b6108e8565b60405161020891906131da565b60405180910390f35b34801561021d57600080fd5b5061023860048036038101906102339190612823565b610908565b005b34801561024657600080fd5b50610261600480360381019061025c9190612823565b610929565b005b34801561026f57600080fd5b506102786109ac565b6040516102859190613484565b60405180910390f35b34801561029a57600080fd5b506102a3610a7a565b6040516102b09190613159565b60405180910390f35b3480156102c557600080fd5b506102e060048036038101906102db919061292f565b610def565b6040516102ed919061317b565b60405180910390f35b34801561030257600080fd5b5061030b610edc565b6040516103189190613484565b60405180910390f35b34801561032d57600080fd5b5061034860048036038101906103439190612890565b610fc7565b005b34801561035657600080fd5b50610371600480360381019061036c919061295c565b611248565b60405161037e9190613469565b60405180910390f35b34801561039357600080fd5b506103ae60048036038101906103a99190612823565b611572565b6040516103bb91906131bf565b60405180910390f35b3480156103d057600080fd5b506103d96115dd565b6040516103e691906131da565b60405180910390f35b3480156103fb57600080fd5b506104046115e4565b604051610411919061319d565b60405180910390f35b34801561042657600080fd5b5061042f61171d565b60405161043c9190613484565b60405180910390f35b34801561045157600080fd5b5061045a611723565b60405161046791906131bf565b60405180910390f35b34801561047c57600080fd5b506104976004803603810190610492919061292f565b61176c565b6040516104a49190613447565b60405180910390f35b3480156104b957600080fd5b506104d460048036038101906104cf9190612823565b611a28565b005b3480156104e257600080fd5b506104eb611a49565b6040516104f891906131bf565b60405180910390f35b610509611a92565b005b60007f7965db0b000000000000000000000000000000000000000000000000000000007bffffffffffffffffffffffffffffffffffffffffffffffffffffffff1916827bffffffffffffffffffffffffffffffffffffffffffffffffffffffff1916148061057e575061057d82611dbd565b5b9050919050565b60006040518060400160405280601f81526020017f556e617574686f72697a65643a205374616b65686f6c64657273206f6e6c79008152506105e77f000000000000000000000000000000000000000000000000000000000000000033611572565b8190610629576040517f08c379a000000000000000000000000000000000000000000000000000000000815260040161062091906132e5565b60405180910390fd5b50610632611e27565b600060046000858152602001908152602001600020905080600101546003541015610692576040517f08c379a0000000000000000000000000000000000000000000000000000000008152600401610689906133c7565b60405180910390fd5b8060070160019054906101000a900460ff16156106e4576040517f08c379a00000000000000000000000000000000000000000000000000000000081526004016106db90613347565b60405180910390fd5b806004015481600301541161072e576040517f08c379a000000000000000000000000000000000000000000000000000000000815260040161072590613327565b60405180910390fd5b60018160070160016101000a81548160ff021916908315150217905550338160090160006101000a81548173ffffffffffffffffffffffffffffffffffffffff021916908373ffffffffffffffffffffffffffffffffffffffff1602179055508060010154600360008282546107a49190613693565b925050819055506107dd8160070160029054906101000a900473ffffffffffffffffffffffffffffffffffffffff168260010154611e77565b508060070160029054906101000a900473ffffffffffffffffffffffffffffffffffffffff1673ffffffffffffffffffffffffffffffffffffffff163373ffffffffffffffffffffffffffffffffffffffff167fa596782d699d74613fcbf59d33e720baabd313d6be9c95e2268f305430305eb77f0000000000000000000000000000000000000000000000000000000000000000846001015460405161088592919061326d565b60405180910390a360035492505061089b611f2f565b50919050565b6000600760003373ffffffffffffffffffffffffffffffffffffffff1673ffffffffffffffffffffffffffffffffffffffff16815260200190815260200160002054905090565b600060016000838152602001908152602001600020600101549050919050565b610911826108e8565b61091a81611f39565b6109248383611f4d565b505050565b61093161202d565b73ffffffffffffffffffffffffffffffffffffffff168173ffffffffffffffffffffffffffffffffffffffff161461099e576040517f08c379a000000000000000000000000000000000000000000000000000000000815260040161099590613427565b60405180910390fd5b6109a88282612035565b5050565b6000604051806060016040528060218152602001613d10602191396109f17f000000000000000000000000000000000000000000000000000000000000000033611572565b8190610a33576040517f08c379a0000000000000000000000000000000000000000000000000000000008152600401610a2a91906132e5565b60405180910390fd5b50600760003373ffffffffffffffffffffffffffffffffffffffff1673ffffffffffffffffffffffffffffffffffffffff1681526020019081526020016000205491505090565b6060600260009054906101000a900463ffffffff1663ffffffff1667ffffffffffffffff811115610aae57610aad613939565b5b604051908082528060200260200182016040528015610ae757816020015b610ad461259a565b815260200190600190039081610acc5790505b50905060005b600260009054906101000a900463ffffffff1663ffffffff16811015610deb5760046000828152602001908152602001600020604051806101800160405290816000820154815260200160018201548152602001600282015481526020016003820154815260200160048201548152602001600582018054610b6e906137d3565b80601f0160208091040260200160405190810160405280929190818152602001828054610b9a906137d3565b8015610be75780601f10610bbc57610100808354040283529160200191610be7565b820191906000526020600020905b815481529060010190602001808311610bca57829003601f168201915b50505050508152602001600682018054610c00906137d3565b80601f0160208091040260200160405190810160405280929190818152602001828054610c2c906137d3565b8015610c795780601f10610c4e57610100808354040283529160200191610c79565b820191906000526020600020905b815481529060010190602001808311610c5c57829003601f168201915b505050505081526020016007820160009054906101000a900460ff161515151581526020016007820160019054906101000a900460ff161515151581526020016007820160029054906101000a900473ffffffffffffffffffffffffffffffffffffffff1673ffffffffffffffffffffffffffffffffffffffff1673ffffffffffffffffffffffffffffffffffffffff1681526020016008820160009054906101000a900473ffffffffffffffffffffffffffffffffffffffff1673ffffffffffffffffffffffffffffffffffffffff1673ffffffffffffffffffffffffffffffffffffffff1681526020016009820160009054906101000a900473ffffffffffffffffffffffffffffffffffffffff1673ffffffffffffffffffffffffffffffffffffffff1673ffffffffffffffffffffffffffffffffffffffff1681525050828281518110610dcd57610dcc61390a565b5b60200260200101819052508080610de390613836565b915050610aed565b5090565b606060066000838152602001908152602001600020805480602002602001604051908101604052809291908181526020016000905b82821015610ed157838290600052602060002090600302016040518060600160405290816000820160009054906101000a900473ffffffffffffffffffffffffffffffffffffffff1673ffffffffffffffffffffffffffffffffffffffff1673ffffffffffffffffffffffffffffffffffffffff168152602001600182015481526020016002820160009054906101000a900460ff16151515158152505081526020019060010190610e24565b505050509050919050565b60006040518060400160405280601f81526020017f556e617574686f72697a65643a206e6f742061207374616b65686f6c64657200815250610f3e7f000000000000000000000000000000000000000000000000000000000000000033611572565b8190610f80576040517f08c379a0000000000000000000000000000000000000000000000000000000008152600401610f7791906132e5565b60405180910390fd5b50600860003373ffffffffffffffffffffffffffffffffffffffff1673ffffffffffffffffffffffffffffffffffffffff1681526020019081526020016000205491505090565b604051806060016040528060338152602001613d316033913961100a7f000000000000000000000000000000000000000000000000000000000000000033611572565b819061104c576040517f08c379a000000000000000000000000000000000000000000000000000000000815260040161104391906132e5565b60405180910390fd5b5060006002600081819054906101000a900463ffffffff16809291906110719061387f565b91906101000a81548163ffffffff021916908363ffffffff16021790555090506000600460008363ffffffff16815260200190815260200160002090508163ffffffff168160000181905550338160080160006101000a81548173ffffffffffffffffffffffffffffffffffffffff021916908373ffffffffffffffffffffffffffffffffffffffff16021790555086816005019080519060200190611118929190612641565b5085816006019080519060200190611131929190612641565b50848160070160026101000a81548173ffffffffffffffffffffffffffffffffffffffff021916908373ffffffffffffffffffffffffffffffffffffffff1602179055508381600101819055507f000000000000000000000000000000000000000000000000000000000000000063ffffffff16426111b091906135e3565b81600201819055508473ffffffffffffffffffffffffffffffffffffffff163373ffffffffffffffffffffffffffffffffffffffff167fa596782d699d74613fcbf59d33e720baabd313d6be9c95e2268f305430305eb77f000000000000000000000000000000000000000000000000000000000000000087604051611237929190613231565b60405180910390a350505050505050565b6112506126c7565b604051806060016040528060308152602001613ce0603091396112937f000000000000000000000000000000000000000000000000000000000000000033611572565b81906112d5576040517f08c379a00000000000000000000000000000000000000000000000000000000081526004016112cc91906132e5565b60405180910390fd5b5060006004600086815260200190815260200160002090506112f681612117565b831561131b5780600301600081548092919061131190613836565b9190505550611336565b80600401600081548092919061133090613836565b91905055505b600560003373ffffffffffffffffffffffffffffffffffffffff1673ffffffffffffffffffffffffffffffffffffffff16815260200190815260200160002081600001549080600181540180825580915050600190039060005260206000200160009091909190915055600660008260000154815260200190815260200160002060405180606001604052803373ffffffffffffffffffffffffffffffffffffffff168152602001428152602001861515815250908060018154018082558091505060019003906000526020600020906003020160009091909190915060008201518160000160006101000a81548173ffffffffffffffffffffffffffffffffffffffff021916908373ffffffffffffffffffffffffffffffffffffffff1602179055506020820151816001015560408201518160020160006101000a81548160ff02191690831515021790555050508060070160029054906101000a900473ffffffffffffffffffffffffffffffffffffffff1673ffffffffffffffffffffffffffffffffffffffff163373ffffffffffffffffffffffffffffffffffffffff167fa596782d699d74613fcbf59d33e720baabd313d6be9c95e2268f305430305eb77f0000000000000000000000000000000000000000000000000000000000000000846001015460405161152d9291906131f5565b60405180910390a360405180606001604052803373ffffffffffffffffffffffffffffffffffffffff1681526020014281526020018515158152509250505092915050565b60006001600084815260200190815260200160002060000160008373ffffffffffffffffffffffffffffffffffffffff1673ffffffffffffffffffffffffffffffffffffffff16815260200190815260200160002060009054906101000a900460ff16905092915050565b6000801b81565b60606040518060400160405280601f81526020017f556e617574686f72697a65643a206e6f742061207374616b65686f6c646572008152506116467f000000000000000000000000000000000000000000000000000000000000000033611572565b8190611688576040517f08c379a000000000000000000000000000000000000000000000000000000000815260040161167f91906132e5565b60405180910390fd5b50600560003373ffffffffffffffffffffffffffffffffffffffff1673ffffffffffffffffffffffffffffffffffffffff16815260200190815260200160002080548060200260200160405190810160405280929190818152602001828054801561171257602002820191906000526020600020905b8154815260200190600101908083116116fe575b505050505091505090565b60035481565b600080600860003373ffffffffffffffffffffffffffffffffffffffff1673ffffffffffffffffffffffffffffffffffffffff1681526020019081526020016000205411905090565b61177461259a565b600460008381526020019081526020016000206040518061018001604052908160008201548152602001600182015481526020016002820154815260200160038201548152602001600482015481526020016005820180546117d5906137d3565b80601f0160208091040260200160405190810160405280929190818152602001828054611801906137d3565b801561184e5780601f106118235761010080835404028352916020019161184e565b820191906000526020600020905b81548152906001019060200180831161183157829003601f168201915b50505050508152602001600682018054611867906137d3565b80601f0160208091040260200160405190810160405280929190818152602001828054611893906137d3565b80156118e05780601f106118b5576101008083540402835291602001916118e0565b820191906000526020600020905b8154815290600101906020018083116118c357829003601f168201915b505050505081526020016007820160009054906101000a900460ff161515151581526020016007820160019054906101000a900460ff161515151581526020016007820160029054906101000a900473ffffffffffffffffffffffffffffffffffffffff1673ffffffffffffffffffffffffffffffffffffffff1673ffffffffffffffffffffffffffffffffffffffff1681526020016008820160009054906101000a900473ffffffffffffffffffffffffffffffffffffffff1673ffffffffffffffffffffffffffffffffffffffff1673ffffffffffffffffffffffffffffffffffffffff1681526020016009820160009054906101000a900473ffffffffffffffffffffffffffffffffffffffff1673ffffffffffffffffffffffffffffffffffffffff1673ffffffffffffffffffffffffffffffffffffffff16815250509050919050565b611a31826108e8565b611a3a81611f39565b611a448383612035565b505050565b600080600760003373ffffffffffffffffffffffffffffffffffffffff1673ffffffffffffffffffffffffffffffffffffffff1681526020019081526020016000205411905090565b60003411611ad5576040517f08c379a0000000000000000000000000000000000000000000000000000000008152600401611acc906133a7565b60405180910390fd5b611aff7f000000000000000000000000000000000000000000000000000000000000000033611572565b611c6e57600034600760003373ffffffffffffffffffffffffffffffffffffffff1673ffffffffffffffffffffffffffffffffffffffff16815260200190815260200160002054611b5091906135e3565b90507f00000000000000000000000000000000000000000000000000000000000000008110611be85780600860003373ffffffffffffffffffffffffffffffffffffffff1673ffffffffffffffffffffffffffffffffffffffff16815260200190815260200160002081905550611be77f000000000000000000000000000000000000000000000000000000000000000033611f4d565b5b34600760003373ffffffffffffffffffffffffffffffffffffffff1673ffffffffffffffffffffffffffffffffffffffff1681526020019081526020016000206000828254611c3791906135e3565b92505081905550611c687f000000000000000000000000000000000000000000000000000000000000000033611f4d565b50611d1b565b34600760003373ffffffffffffffffffffffffffffffffffffffff1673ffffffffffffffffffffffffffffffffffffffff1681526020019081526020016000206000828254611cbd91906135e3565b9250508190555034600860003373ffffffffffffffffffffffffffffffffffffffff1673ffffffffffffffffffffffffffffffffffffffff1681526020019081526020016000206000828254611d1391906135e3565b925050819055505b3460036000828254611d2d91906135e3565b925050819055503073ffffffffffffffffffffffffffffffffffffffff163373ffffffffffffffffffffffffffffffffffffffff167fa596782d699d74613fcbf59d33e720baabd313d6be9c95e2268f305430305eb77f000000000000000000000000000000000000000000000000000000000000000034604051611db39291906132a9565b60405180910390a3565b60007f01ffc9a7000000000000000000000000000000000000000000000000000000007bffffffffffffffffffffffffffffffffffffffffffffffffffffffff1916827bffffffffffffffffffffffffffffffffffffffffffffffffffffffff1916149050919050565b60026000541415611e6d576040517f08c379a0000000000000000000000000000000000000000000000000000000008152600401611e64906133e7565b60405180910390fd5b6002600081905550565b6000808373ffffffffffffffffffffffffffffffffffffffff1683604051611e9e9061310a565b60006040518083038185875af1925050503d8060008114611edb576040519150601f19603f3d011682016040523d82523d6000602084013e611ee0565b606091505b5050905080611f24576040517f08c379a0000000000000000000000000000000000000000000000000000000008152600401611f1b90613387565b60405180910390fd5b600191505092915050565b6001600081905550565b611f4a81611f4561202d565b6122ac565b50565b611f578282611572565b61202957600180600084815260200190815260200160002060000160008373ffffffffffffffffffffffffffffffffffffffff1673ffffffffffffffffffffffffffffffffffffffff16815260200190815260200160002060006101000a81548160ff021916908315150217905550611fce61202d565b73ffffffffffffffffffffffffffffffffffffffff168173ffffffffffffffffffffffffffffffffffffffff16837f2f8788117e7eff1d82e926ec794901d17c78024a50270940304540a733656f0d60405160405180910390a45b5050565b600033905090565b61203f8282611572565b156121135760006001600084815260200190815260200160002060000160008373ffffffffffffffffffffffffffffffffffffffff1673ffffffffffffffffffffffffffffffffffffffff16815260200190815260200160002060006101000a81548160ff0219169083151502179055506120b861202d565b73ffffffffffffffffffffffffffffffffffffffff168173ffffffffffffffffffffffffffffffffffffffff16837ff6391f5c32d9c69d2a47ea670b442974b53935d1edc7fd64eb21e047a839171b60405160405180910390a45b5050565b8060070160009054906101000a900460ff1680612138575042816002015411155b156121955760018160070160006101000a81548160ff0219169083151502179055506040517f08c379a000000000000000000000000000000000000000000000000000000000815260040161218c90613407565b60405180910390fd5b6000600560003373ffffffffffffffffffffffffffffffffffffffff1673ffffffffffffffffffffffffffffffffffffffff16815260200190815260200160002080548060200260200160405190810160405280929190818152602001828054801561222057602002820191906000526020600020905b81548152602001906001019080831161220c575b5050505050905060005b81518110156122a7578181815181106122465761224561390a565b5b602002602001015183600001541415612294576040517f08c379a000000000000000000000000000000000000000000000000000000000815260040161228b90613367565b60405180910390fd5b808061229f90613836565b91505061222a565b505050565b6122b68282611572565b61232d576122c381612331565b6122d18360001c602061235e565b6040516020016122e292919061311f565b6040516020818303038152906040526040517f08c379a000000000000000000000000000000000000000000000000000000000815260040161232491906132e5565b60405180910390fd5b5050565b60606123578273ffffffffffffffffffffffffffffffffffffffff16601460ff1661235e565b9050919050565b6060600060028360026123719190613639565b61237b91906135e3565b67ffffffffffffffff81111561239457612393613939565b5b6040519080825280601f01601f1916602001820160405280156123c65781602001600182028036833780820191505090505b5090507f3000000000000000000000000000000000000000000000000000000000000000816000815181106123fe576123fd61390a565b5b60200101907effffffffffffffffffffffffffffffffffffffffffffffffffffffffffffff1916908160001a9053507f7800000000000000000000000000000000000000000000000000000000000000816001815181106124625761246161390a565b5b60200101907effffffffffffffffffffffffffffffffffffffffffffffffffffffffffffff1916908160001a905350600060018460026124a29190613639565b6124ac91906135e3565b90505b600181111561254c577f3031323334353637383961626364656600000000000000000000000000000000600f8616601081106124ee576124ed61390a565b5b1a60f81b8282815181106125055761250461390a565b5b60200101907effffffffffffffffffffffffffffffffffffffffffffffffffffffffffffff1916908160001a905350600485901c945080612545906137a9565b90506124af565b5060008414612590576040517f08c379a000000000000000000000000000000000000000000000000000000000815260040161258790613307565b60405180910390fd5b8091505092915050565b60405180610180016040528060008152602001600081526020016000815260200160008152602001600081526020016060815260200160608152602001600015158152602001600015158152602001600073ffffffffffffffffffffffffffffffffffffffff168152602001600073ffffffffffffffffffffffffffffffffffffffff168152602001600073ffffffffffffffffffffffffffffffffffffffff1681525090565b82805461264d906137d3565b90600052602060002090601f01602090048101928261266f57600085556126b6565b82601f1061268857805160ff19168380011785556126b6565b828001600101855582156126b6579182015b828111156126b557825182559160200191906001019061269a565b5b5090506126c39190612700565b5090565b6040518060600160405280600073ffffffffffffffffffffffffffffffffffffffff168152602001600081526020016000151581525090565b5b80821115612719576000816000905550600101612701565b5090565b600061273061272b846134c4565b61349f565b90508281526020810184848401111561274c5761274b61396d565b5b612757848285613767565b509392505050565b60008135905061276e81613c6c565b92915050565b60008135905061278381613c83565b92915050565b60008135905061279881613c9a565b92915050565b6000813590506127ad81613cb1565b92915050565b600082601f8301126127c8576127c7613968565b5b81356127d884826020860161271d565b91505092915050565b6000813590506127f081613cc8565b92915050565b60006020828403121561280c5761280b613977565b5b600061281a84828501612789565b91505092915050565b6000806040838503121561283a57612839613977565b5b600061284885828601612789565b92505060206128598582860161275f565b9150509250929050565b60006020828403121561287957612878613977565b5b60006128878482850161279e565b91505092915050565b600080600080608085870312156128aa576128a9613977565b5b600085013567ffffffffffffffff8111156128c8576128c7613972565b5b6128d4878288016127b3565b945050602085013567ffffffffffffffff8111156128f5576128f4613972565b5b612901878288016127b3565b93505060406129128782880161275f565b9250506060612923878288016127e1565b91505092959194509250565b60006020828403121561294557612944613977565b5b6000612953848285016127e1565b91505092915050565b6000806040838503121561297357612972613977565b5b6000612981858286016127e1565b925050602061299285828601612774565b9150509250929050565b60006129a88383612e52565b905092915050565b60006129bc8383613068565b60608301905092915050565b60006129d483836130ec565b60208301905092915050565b6129e9816136d9565b82525050565b6129f8816136c7565b82525050565b6000612a0982613525565b612a138185613578565b935083602082028501612a25856134f5565b8060005b85811015612a615784840389528151612a42858261299c565b9450612a4d83613551565b925060208a01995050600181019050612a29565b50829750879550505050505092915050565b6000612a7e82613530565b612a888185613589565b9350612a9383613505565b8060005b83811015612ac4578151612aab88826129b0565b9750612ab68361355e565b925050600181019050612a97565b5085935050505092915050565b6000612adc8261353b565b612ae6818561359a565b9350612af183613515565b8060005b83811015612b22578151612b0988826129c8565b9750612b148361356b565b925050600181019050612af5565b5085935050505092915050565b612b38816136eb565b82525050565b612b47816136eb565b82525050565b612b56816136f7565b82525050565b6000612b6782613546565b612b7181856135b6565b9350612b81818560208601613776565b612b8a8161397c565b840191505092915050565b6000612ba082613546565b612baa81856135c7565b9350612bba818560208601613776565b612bc38161397c565b840191505092915050565b6000612bd982613546565b612be381856135d8565b9350612bf3818560208601613776565b80840191505092915050565b6000612c0c600d836135c7565b9150612c178261398d565b602082019050919050565b6000612c2f6020836135c7565b9150612c3a826139b6565b602082019050919050565b6000612c526012836135c7565b9150612c5d826139df565b602082019050919050565b6000612c756013836135c7565b9150612c8082613a08565b602082019050919050565b6000612c98600f836135c7565b9150612ca382613a31565b602082019050919050565b6000612cbb6019836135c7565b9150612cc682613a5a565b602082019050919050565b6000612cde600e836135c7565b9150612ce982613a83565b602082019050919050565b6000612d016000836135ab565b9150612d0c82613aac565b600082019050919050565b6000612d246021836135c7565b9150612d2f82613aaf565b604082019050919050565b6000612d476017836135d8565b9150612d5282613afe565b601782019050919050565b6000612d6a6011836135c7565b9150612d7582613b27565b602082019050919050565b6000612d8d6012836135c7565b9150612d9882613b50565b602082019050919050565b6000612db0601f836135c7565b9150612dbb82613b79565b602082019050919050565b6000612dd36015836135c7565b9150612dde82613ba2565b602082019050919050565b6000612df66011836135d8565b9150612e0182613bcb565b601182019050919050565b6000612e196019836135c7565b9150612e2482613bf4565b602082019050919050565b6000612e3c602f836135c7565b9150612e4782613c1d565b604082019050919050565b600061018083016000830151612e6b60008601826130ec565b506020830151612e7e60208601826130ec565b506040830151612e9160408601826130ec565b506060830151612ea460608601826130ec565b506080830151612eb760808601826130ec565b5060a083015184820360a0860152612ecf8282612b5c565b91505060c083015184820360c0860152612ee98282612b5c565b91505060e0830151612efe60e0860182612b2f565b50610100830151612f13610100860182612b2f565b50610120830151612f286101208601826129e0565b50610140830151612f3d6101408601826129ef565b50610160830151612f526101608601826129ef565b508091505092915050565b600061018083016000830151612f7660008601826130ec565b506020830151612f8960208601826130ec565b506040830151612f9c60408601826130ec565b506060830151612faf60608601826130ec565b506080830151612fc260808601826130ec565b5060a083015184820360a0860152612fda8282612b5c565b91505060c083015184820360c0860152612ff48282612b5c565b91505060e083015161300960e0860182612b2f565b5061010083015161301e610100860182612b2f565b506101208301516130336101208601826129e0565b506101408301516130486101408601826129ef565b5061016083015161305d6101608601826129ef565b508091505092915050565b60608201600082015161307e60008501826129ef565b50602082015161309160208501826130ec565b5060408201516130a46040850182612b2f565b50505050565b6060820160008201516130c060008501826129ef565b5060208201516130d360208501826130ec565b5060408201516130e66040850182612b2f565b50505050565b6130f58161374d565b82525050565b6131048161374d565b82525050565b600061311582612cf4565b9150819050919050565b600061312a82612d3a565b91506131368285612bce565b915061314182612de9565b915061314d8284612bce565b91508190509392505050565b6000602082019050818103600083015261317381846129fe565b905092915050565b600060208201905081810360008301526131958184612a73565b905092915050565b600060208201905081810360008301526131b78184612ad1565b905092915050565b60006020820190506131d46000830184612b3e565b92915050565b60006020820190506131ef6000830184612b4d565b92915050565b600060608201905061320a6000830185612b4d565b818103602083015261321b81612bff565b905061322a60408301846130fb565b9392505050565b60006060820190506132466000830185612b4d565b818103602083015261325781612c8b565b905061326660408301846130fb565b9392505050565b60006060820190506132826000830185612b4d565b818103602083015261329381612d80565b90506132a260408301846130fb565b9392505050565b60006060820190506132be6000830185612b4d565b81810360208301526132cf81612dc6565b90506132de60408301846130fb565b9392505050565b600060208201905081810360008301526132ff8184612b95565b905092915050565b6000602082019050818103600083015261332081612c22565b9050919050565b6000602082019050818103600083015261334081612c45565b9050919050565b6000602082019050818103600083015261336081612c68565b9050919050565b6000602082019050818103600083015261338081612cae565b9050919050565b600060208201905081810360008301526133a081612cd1565b9050919050565b600060208201905081810360008301526133c081612d17565b9050919050565b600060208201905081810360008301526133e081612d5d565b9050919050565b6000602082019050818103600083015261340081612da3565b9050919050565b6000602082019050818103600083015261342081612e0c565b9050919050565b6000602082019050818103600083015261344081612e2f565b9050919050565b600060208201905081810360008301526134618184612f5d565b905092915050565b600060608201905061347e60008301846130aa565b92915050565b600060208201905061349960008301846130fb565b92915050565b60006134a96134ba565b90506134b58282613805565b919050565b6000604051905090565b600067ffffffffffffffff8211156134df576134de613939565b5b6134e88261397c565b9050602081019050919050565b6000819050602082019050919050565b6000819050602082019050919050565b6000819050602082019050919050565b600081519050919050565b600081519050919050565b600081519050919050565b600081519050919050565b6000602082019050919050565b6000602082019050919050565b6000602082019050919050565b600082825260208201905092915050565b600082825260208201905092915050565b600082825260208201905092915050565b600081905092915050565b600082825260208201905092915050565b600082825260208201905092915050565b600081905092915050565b60006135ee8261374d565b91506135f98361374d565b9250827fffffffffffffffffffffffffffffffffffffffffffffffffffffffffffffffff0382111561362e5761362d6138ac565b5b828201905092915050565b60006136448261374d565b915061364f8361374d565b9250817fffffffffffffffffffffffffffffffffffffffffffffffffffffffffffffffff0483118215151615613688576136876138ac565b5b828202905092915050565b600061369e8261374d565b91506136a98361374d565b9250828210156136bc576136bb6138ac565b5b828203905092915050565b60006136d28261372d565b9050919050565b60006136e48261372d565b9050919050565b60008115159050919050565b6000819050919050565b60007fffffffff0000000000000000000000000000000000000000000000000000000082169050919050565b600073ffffffffffffffffffffffffffffffffffffffff82169050919050565b6000819050919050565b600063ffffffff82169050919050565b82818337600083830152505050565b60005b83811015613794578082015181840152602081019050613779565b838111156137a3576000848401525b50505050565b60006137b48261374d565b915060008214156137c8576137c76138ac565b5b600182039050919050565b600060028204905060018216806137eb57607f821691505b602082108114156137ff576137fe6138db565b5b50919050565b61380e8261397c565b810181811067ffffffffffffffff8211171561382d5761382c613939565b5b80604052505050565b60006138418261374d565b91507fffffffffffffffffffffffffffffffffffffffffffffffffffffffffffffffff821415613874576138736138ac565b5b600182019050919050565b600061388a82613757565b915063ffffffff8214156138a1576138a06138ac565b5b600182019050919050565b7f4e487b7100000000000000000000000000000000000000000000000000000000600052601160045260246000fd5b7f4e487b7100000000000000000000000000000000000000000000000000000000600052602260045260246000fd5b7f4e487b7100000000000000000000000000000000000000000000000000000000600052603260045260246000fd5b7f4e487b7100000000000000000000000000000000000000000000000000000000600052604160045260246000fd5b600080fd5b600080fd5b600080fd5b600080fd5b6000601f19601f8301169050919050565b7f50524f504f53414c20564f544500000000000000000000000000000000000000600082015250565b7f537472696e67733a20686578206c656e67746820696e73756666696369656e74600082015250565b7f496e73756666696369656e7420766f7465730000000000000000000000000000600082015250565b7f5061796d656e742073656e74206265666f726500000000000000000000000000600082015250565b7f50524f504f53414c205241495345440000000000000000000000000000000000600082015250565b7f446f75626c6520766f74696e67206e6f7420616c6c6f77656400000000000000600082015250565b7f5061796d656e74206661696c6564000000000000000000000000000000000000600082015250565b50565b7f436f6e747269627574696e67207a65726f206973206e6f7420616c6c6f77656460008201527f2e00000000000000000000000000000000000000000000000000000000000000602082015250565b7f416363657373436f6e74726f6c3a206163636f756e7420000000000000000000600082015250565b7f496e73756666696369656e742066756e64000000000000000000000000000000600082015250565b7f5041594d454e54205452414e5346455245440000000000000000000000000000600082015250565b7f5265656e7472616e637947756172643a207265656e7472616e742063616c6c00600082015250565b7f434f4e545249425554494f4e2052454345495645440000000000000000000000600082015250565b7f206973206d697373696e6720726f6c6520000000000000000000000000000000600082015250565b7f70726f706f73616c206475726174696f6e206578706972656400000000000000600082015250565b7f416363657373436f6e74726f6c3a2063616e206f6e6c792072656e6f756e636560008201527f20726f6c657320666f722073656c660000000000000000000000000000000000602082015250565b613c75816136c7565b8114613c8057600080fd5b50565b613c8c816136eb565b8114613c9757600080fd5b50565b613ca3816136f7565b8114613cae57600080fd5b50565b613cba81613701565b8114613cc557600080fd5b50565b613cd18161374d565b8114613cdc57600080fd5b5056fe556e617574686f72697a6564206163636573733a205374616b65686f6c64657273206f6e6c79207065726d697474656444656e6965643a2055736572206973206e6f74206120636f6e7472696275746f7270726f706f73616c206372656174696f6e20616c6c6f77656420666f7220746865207374616b65686f6c64657273206f6e6c79a26469706673582212209b75a83bdcd0fcead0a9301941db09b7f25a5d576dbf846470e9dd30cfeb31bd64736f6c63430008060033",
  "linkReferences": {},
  "deployedLinkReferences": {}
}